:020000020000FC
:100000000FE90DBFBA9AC298B99AC198B89AC09A26
:10001000BB984F934F93789411E0512F50D00F938A
:100020001F933F9301E01BE93BE93A95F1F71A95DD
:10003000D9F70A95C1F73F911F910F911395193187
:1000400059F3EBCF0F93BA9A0F910F93B89A0F9180
:100050000F93C2980F910F93C0980F911F932F93F6
:100060003F93112722273327C0E6D0E02330C1F089
:10007000112739910F93C0980F9130FF01C004C030
:100080000F93C2980F9103C00F93C29A0F910F93D1
:10009000C09A0F9137951395183061F72395E6CFE5
:1000A0000F93C0980F91C19A0000C1980000C19AA7
:1000B0000000C19800003F912F911F91089566277D
:1000C000772788279927716008E1051B502F65174E
:1000D000A9F06395683011F0770FF9CF7727816029
:1000E000651761F06395603111F0880FF9CF8827AB
:1000F0009160651719F06395990FFBCF70936000BD
:0C01000080936100909362009DDF0895E1
:00000001FF
